{
  "contractName": "EventTicketsV2",
  "abi": [
    {
      "constant": true,
      "inputs": [
        {
          "name": "",
          "type": "uint256"
        }
      ],
      "name": "events",
      "outputs": [
        {
          "name": "description",
          "type": "string"
        },
        {
          "name": "url",
          "type": "string"
        },
        {
          "name": "totalTickets",
          "type": "uint256"
        },
        {
          "name": "sales",
          "type": "uint256"
        },
        {
          "name": "isOpen",
          "type": "bool"
        }
      ],
      "payable": false,
      "stateMutability": "view",
      "type": "function"
    },
    {
      "constant": true,
      "inputs": [],
      "name": "owner",
      "outputs": [
        {
          "name": "",
          "type": "address"
        }
      ],
      "payable": false,
      "stateMutability": "view",
      "type": "function"
    },
    {
      "constant": true,
      "inputs": [],
      "name": "idGenerator",
      "outputs": [
        {
          "name": "",
          "type": "uint256"
        }
      ],
      "payable": false,
      "stateMutability": "view",
      "type": "function"
    },
    {
      "inputs": [],
      "payable": false,
      "stateMutability": "nonpayable",
      "type": "constructor"
    },
    {
      "anonymous": false,
      "inputs": [
        {
          "indexed": false,
          "name": "desc",
          "type": "string"
        },
        {
          "indexed": false,
          "name": "url",
          "type": "string"
        },
        {
          "indexed": false,
          "name": "ticketsAvailable",
          "type": "uint256"
        },
        {
          "indexed": false,
          "name": "eventId",
          "type": "uint256"
        }
      ],
      "name": "LogEventAdded",
      "type": "event"
    },
    {
      "anonymous": false,
      "inputs": [
        {
          "indexed": false,
          "name": "buyer",
          "type": "address"
        },
        {
          "indexed": false,
          "name": "eventId",
          "type": "uint256"
        },
        {
          "indexed": false,
          "name": "numTickets",
          "type": "uint256"
        }
      ],
      "name": "LogBuyTickets",
      "type": "event"
    },
    {
      "anonymous": false,
      "inputs": [
        {
          "indexed": false,
          "name": "accountRefunded",
          "type": "address"
        },
        {
          "indexed": false,
          "name": "eventId",
          "type": "uint256"
        },
        {
          "indexed": false,
          "name": "numTickets",
          "type": "uint256"
        }
      ],
      "name": "LogGetRefund",
      "type": "event"
    },
    {
      "anonymous": false,
      "inputs": [
        {
          "indexed": false,
          "name": "owner",
          "type": "address"
        },
        {
          "indexed": false,
          "name": "balance",
          "type": "uint256"
        },
        {
          "indexed": false,
          "name": "eventId",
          "type": "uint256"
        }
      ],
      "name": "LogEndSale",
      "type": "event"
    },
    {
      "constant": false,
      "inputs": [
        {
          "name": "description",
          "type": "string"
        },
        {
          "name": "url",
          "type": "string"
        },
        {
          "name": "tickets",
          "type": "uint256"
        }
      ],
      "name": "addEvent",
      "outputs": [
        {
          "name": "",
          "type": "uint256"
        }
      ],
      "payable": false,
      "stateMutability": "nonpayable",
      "type": "function"
    },
    {
      "constant": true,
      "inputs": [
        {
          "name": "eventId",
          "type": "uint256"
        }
      ],
      "name": "readEvent",
      "outputs": [
        {
          "name": "description",
          "type": "string"
        },
        {
          "name": "url",
          "type": "string"
        },
        {
          "name": "totalTickets",
          "type": "uint256"
        },
        {
          "name": "sales",
          "type": "uint256"
        },
        {
          "name": "isOpen",
          "type": "bool"
        }
      ],
      "payable": false,
      "stateMutability": "view",
      "type": "function"
    },
    {
      "constant": false,
      "inputs": [
        {
          "name": "eventId",
          "type": "uint256"
        },
        {
          "name": "tickets",
          "type": "uint256"
        }
      ],
      "name": "buyTickets",
      "outputs": [],
      "payable": true,
      "stateMutability": "payable",
      "type": "function"
    },
    {
      "constant": false,
      "inputs": [
        {
          "name": "eventId",
          "type": "uint256"
        }
      ],
      "name": "getRefund",
      "outputs": [],
      "payable": false,
      "stateMutability": "nonpayable",
      "type": "function"
    },
    {
      "constant": true,
      "inputs": [
        {
          "name": "eventId",
          "type": "uint256"
        }
      ],
      "name": "getBuyerNumberTickets",
      "outputs": [
        {
          "name": "",
          "type": "uint256"
        }
      ],
      "payable": false,
      "stateMutability": "view",
      "type": "function"
    },
    {
      "constant": false,
      "inputs": [
        {
          "name": "eventId",
          "type": "uint256"
        }
      ],
      "name": "endSale",
      "outputs": [],
      "payable": false,
      "stateMutability": "nonpayable",
      "type": "function"
    }
  ],
  "bytecode": "0x6080604052606460015534801561001557600080fd5b50336000806101000a81548173ffffffffffffffffffffffffffffffffffffffff021916908373ffffffffffffffffffffffffffffffffffffffff16021790555061142f806100656000396000f3fe6080604052600436106100865760003560e01c80638627df46116100595780638627df46146103cb5780638da5cb5b14610403578063d2f0be991461045a578063e1ba30a914610495578063e7bd92b9146105ce57610086565b806304d1a8461461008b5780630b791430146100c65780633ddedd38146101ff5780634da19f201461024e575b600080fd5b34801561009757600080fd5b506100c4600480360360208110156100ae57600080fd5b81019080803590602001909291905050506105f9565b005b3480156100d257600080fd5b506100ff600480360360208110156100e957600080fd5b81019080803590602001909291905050506107c7565b60405180806020018060200186815260200185815260200184151515158152602001838103835288818151815260200191508051906020019080838360005b8381101561015957808201518184015260208101905061013e565b50505050905090810190601f1680156101865780820380516001836020036101000a031916815260200191505b50838103825287818151815260200191508051906020019080838360005b838110156101bf5780820151818401526020810190506101a4565b50505050905090810190601f1680156101ec5780820380516001836020036101000a031916815260200191505b5097505050505050505060405180910390f35b34801561020b57600080fd5b506102386004803603602081101561022257600080fd5b810190808035906020019092919050505061093a565b6040518082815260200191505060405180910390f35b34801561025a57600080fd5b506103b56004803603606081101561027157600080fd5b810190808035906020019064010000000081111561028e57600080fd5b8201836020820111156102a057600080fd5b803590602001918460018302840111640100000000831117156102c257600080fd5b91908080601f016020809104026020016040519081016040528093929190818152602001838380828437600081840152601f19601f8201169050808301925050505050505091929192908035906020019064010000000081111561032557600080fd5b82018360208201111561033757600080fd5b8035906020019184600183028401116401000000008311171561035957600080fd5b91908080601f016020809104026020016040519081016040528093929190818152602001838380828437600081840152601f19601f82011690508083019250505050505050919291929080359060200190929190505050610997565b6040518082815260200191505060405180910390f35b610401600480360360408110156103e157600080fd5b810190808035906020019092919080359060200190929190505050610c46565b005b34801561040f57600080fd5b50610418610f55565b604051808273ffffffffffffffffffffffffffffffffffffffff1673ffffffffffffffffffffffffffffffffffffffff16815260200191505060405180910390f35b34801561046657600080fd5b506104936004803603602081101561047d57600080fd5b8101908080359060200190929190505050610f7a565b005b3480156104a157600080fd5b506104ce600480360360208110156104b857600080fd5b8101908080359060200190929190505050611187565b60405180806020018060200186815260200185815260200184151515158152602001838103835288818151815260200191508051906020019080838360005b8381101561052857808201518184015260208101905061050d565b50505050905090810190601f1680156105555780820380516001836020036101000a031916815260200191505b50838103825287818151815260200191508051906020019080838360005b8381101561058e578082015181840152602081019050610573565b50505050905090810190601f1680156105bb5780820380516001836020036101000a031916815260200191505b5097505050505050505060405180910390f35b3480156105da57600080fd5b506105e3611358565b6040518082815260200191505060405180910390f35b6000809054906101000a900473ffffffffffffffffffffffffffffffffffffffff1673ffffffffffffffffffffffffffffffffffffffff163373ffffffffffffffffffffffffffffffffffffffff16146106bb576040517f08c379a00000000000000000000000000000000000000000000000000000000081526004018080602001828103825260098152602001807f4e6f74206f776e6572000000000000000000000000000000000000000000000081525060200191505060405180910390fd5b60006003600083815260200190815260200160002060050160006101000a81548160ff021916908315150217905550600060015460036000848152602001908152602001600020600301540290503373ffffffffffffffffffffffffffffffffffffffff166108fc829081150290604051600060405180830381858888f1935050505015801561074f573d6000803e3d6000fd5b507f6497e6dff32a753fe6b3a2b3430e5f86d65c6e35cf360d52eb3494711d7d7a1c338284604051808473ffffffffffffffffffffffffffffffffffffffff1673ffffffffffffffffffffffffffffffffffffffff168152602001838152602001828152602001935050505060405180910390a15050565b6003602052806000526040600020600091509050806000018054600181600116156101000203166002900480601f0160208091040260200160405190810160405280929190818152602001828054600181600116156101000203166002900480156108735780601f1061084857610100808354040283529160200191610873565b820191906000526020600020905b81548152906001019060200180831161085657829003601f168201915b505050505090806001018054600181600116156101000203166002900480601f0160208091040260200160405190810160405280929190818152602001828054600181600116156101000203166002900480156109115780601f106108e657610100808354040283529160200191610911565b820191906000526020600020905b8154815290600101906020018083116108f457829003601f168201915b5050505050908060020154908060030154908060050160009054906101000a900460ff16905085565b60006003600083815260200190815260200160002060040160003373ffffffffffffffffffffffffffffffffffffffff1673ffffffffffffffffffffffffffffffffffffffff168152602001908152602001600020549050919050565b60008060009054906101000a900473ffffffffffffffffffffffffffffffffffffffff1673ffffffffffffffffffffffffffffffffffffffff163373ffffffffffffffffffffffffffffffffffffffff1614610a5b576040517f08c379a00000000000000000000000000000000000000000000000000000000081526004018080602001828103825260098152602001807f4e6f74206f776e6572000000000000000000000000000000000000000000000081525060200191505060405180910390fd5b600060025490506040518060a001604052808681526020018581526020018481526020016000815260200160011515815250600360008381526020019081526020016000206000820151816000019080519060200190610abc92919061135e565b506020820151816001019080519060200190610ad992919061135e565b50604082015181600201556060820151816003015560808201518160050160006101000a81548160ff02191690831515021790555090505060016002600082825401925050819055507f7d1d82c13762b51876068c852c5d404d0fa38fb615c14eebefafb60bdb4bd1b285858584604051808060200180602001858152602001848152602001838103835287818151815260200191508051906020019080838360005b83811015610b97578082015181840152602081019050610b7c565b50505050905090810190601f168015610bc45780820380516001836020036101000a031916815260200191505b50838103825286818151815260200191508051906020019080838360005b83811015610bfd578082015181840152602081019050610be2565b50505050905090810190601f168015610c2a5780820380516001836020036101000a031916815260200191505b50965050505050505060405180910390a1809150509392505050565b6000816001540290506003600084815260200190815260200160002060050160009054906101000a900460ff16610ce5576040517f08c379a00000000000000000000000000000000000000000000000000000000081526004018080602001828103825260148152602001807f4576656e742073616c6573206e6f74206f70656e00000000000000000000000081525060200191505060405180910390fd5b34811115610d5b576040517f08c379a00000000000000000000000000000000000000000000000000000000081526004018080602001828103825260108152602001807f4e6f7420656e6f7567682066756e64730000000000000000000000000000000081525060200191505060405180910390fd5b6003600084815260200190815260200160002060020154600360008581526020019081526020016000206003015483011115610dff576040517f08c379a00000000000000000000000000000000000000000000000000000000081526004018080602001828103825260158152602001807f5469636b657473206e6f7420617661696c61626c65000000000000000000000081525060200191505060405180910390fd5b816003600085815260200190815260200160002060040160003373ffffffffffffffffffffffffffffffffffffffff1673ffffffffffffffffffffffffffffffffffffffff16815260200190815260200160002060008282540192505081905550816003600085815260200190815260200160002060030160008282540192505081905550600081340390506000811115610edc573373ffffffffffffffffffffffffffffffffffffffff166108fc829081150290604051600060405180830381858888f19350505050158015610eda573d6000803e3d6000fd5b505b7f15827fa78fedf80f93aa72ce61e705b1362cab60ae596b1bb327076fc3856c24338585604051808473ffffffffffffffffffffffffffffffffffffffff1673ffffffffffffffffffffffffffffffffffffffff168152602001838152602001828152602001935050505060405180910390a150505050565b6000809054906101000a900473ffffffffffffffffffffffffffffffffffffffff1681565b60006003600083815260200190815260200160002060040160003373ffffffffffffffffffffffffffffffffffffffff1673ffffffffffffffffffffffffffffffffffffffff16815260200190815260200160002054905060008111611048576040517f08c379a000000000000000000000000000000000000000000000000000000000815260040180806020018281038252600b8152602001807f4e6f74206120627579657200000000000000000000000000000000000000000081525060200191505060405180910390fd5b60006003600084815260200190815260200160002060040160003373ffffffffffffffffffffffffffffffffffffffff1673ffffffffffffffffffffffffffffffffffffffff168152602001908152602001600020819055508060036000848152602001908152602001600020600301600082825403925050819055503373ffffffffffffffffffffffffffffffffffffffff166108fc60015483029081150290604051600060405180830381858888f1935050505015801561110f573d6000803e3d6000fd5b507f73ebb2050cb3ee6869929e7a26925e92e201f14902e155037f1f90af931b3233338383604051808473ffffffffffffffffffffffffffffffffffffffff1673ffffffffffffffffffffffffffffffffffffffff168152602001838152602001828152602001935050505060405180910390a15050565b606080600080600060036000878152602001908152602001600020600001600360008881526020019081526020016000206001016003600089815260200190815260200160002060020154600360008a815260200190815260200160002060030154600360008b815260200190815260200160002060050160009054906101000a900460ff16848054600181600116156101000203166002900480601f0160208091040260200160405190810160405280929190818152602001828054600181600116156101000203166002900480156112a25780601f10611277576101008083540402835291602001916112a2565b820191906000526020600020905b81548152906001019060200180831161128557829003601f168201915b50505050509450838054600181600116156101000203166002900480601f01602080910402602001604051908101604052809291908181526020018280546001816001161561010002031660029004801561133e5780601f106113135761010080835404028352916020019161133e565b820191906000526020600020905b81548152906001019060200180831161132157829003601f168201915b505050505093509450945094509450945091939590929450565b60025481565b828054600181600116156101000203166002900490600052602060002090601f016020900481019282601f1061139f57805160ff19168380011785556113cd565b828001600101855582156113cd579182015b828111156113cc5782518255916020019190600101906113b1565b5b5090506113da91906113de565b5090565b61140091905b808211156113fc5760008160009055506001016113e4565b5090565b9056fea165627a7a723058201ef4407d62fd2867c7cf81796eaf0fb79d8331140a726202fac20b7b9a579a870029",
  "source": "pragma solidity ^0.5.0;\n\n    /*\n        The EventTicketsV2 contract keeps track of the details and ticket sales of multiple events.\n     */\ncontract EventTicketsV2 {\n\n    /*\n        Define an public owner variable. Set it to the creator of the contract when it is initialized.\n    */\n    address public owner;\n    uint   PRICE_TICKET = 100 wei;\n\n    /*\n        Create a variable to keep track of the event ID numbers.\n    */\n    uint public idGenerator;\n\n    /*\n        Define an Event struct, similar to the V1 of this contract.\n        The struct has 6 fields: description, website (URL), totalTickets, sales, buyers, and isOpen.\n        Choose the appropriate variable type for each field.\n        The \"buyers\" field should keep track of addresses and how many tickets each buyer purchases.\n    */\n    struct Event {\n        string description;\n        string url;\n        uint totalTickets;\n        uint sales;\n        mapping(address => uint) buyers;\n        bool isOpen;\n    }\n    /*\n        Create a mapping to keep track of the events.\n        The mapping key is an integer, the value is an Event struct.\n        Call the mapping \"events\".\n    */\n    mapping(uint => Event) public events;\n\n    event LogEventAdded(string desc, string url, uint ticketsAvailable, uint eventId);\n    event LogBuyTickets(address buyer, uint eventId, uint numTickets);\n    event LogGetRefund(address accountRefunded, uint eventId, uint numTickets);\n    event LogEndSale(address owner, uint balance, uint eventId);\n\n    /*\n        Create a modifier that throws an error if the msg.sender is not the owner.\n    */\n    modifier onlyOwner() {\n        require(msg.sender == owner, \"Not owner\");\n        _;\n    }\n\n    constructor() public {\n        owner = msg.sender;\n    }\n    /*\n        Define a function called addEvent().\n        This function takes 3 parameters, an event description, a URL, and a number of tickets.\n        Only the contract owner should be able to call this function.\n        In the function:\n            - Set the description, URL and ticket number in a new event.\n            - set the event to open\n            - set an event ID\n            - increment the ID\n            - emit the appropriate event\n            - return the event's ID\n    */\n    function addEvent(string memory description, string memory url, uint tickets) public onlyOwner returns(uint) {\n        uint eventId = idGenerator;\n        events[eventId] = Event(description, url, tickets, 0, true);\n        idGenerator += 1;\n        emit LogEventAdded(description, url, tickets, eventId);\n        return eventId;\n    }\n\n    /*\n        Define a function called readEvent().\n        This function takes one parameter, the event ID.\n        The function returns information about the event this order:\n            1. description\n            2. URL\n            3. tickets available\n            4. sales\n            5. isOpen\n    */\n    function readEvent(uint eventId) \n        public\n        view\n        returns \n        (\n            string memory description,\n            string memory url,\n            uint totalTickets,\n            uint sales,\n            bool isOpen\n        )\n    {\n        return (\n            events[eventId].description,\n            events[eventId].url,\n            events[eventId].totalTickets,\n            events[eventId].sales,\n            events[eventId].isOpen\n        );\n    }\n\n    /*\n        Define a function called buyTickets().\n        This function allows users to buy tickets for a specific event.\n        This function takes 2 parameters, an event ID and a number of tickets.\n        The function checks:\n            - that the event sales are open\n            - that the transaction value is sufficient to purchase the number of tickets\n            - that there are enough tickets available to complete the purchase\n        The function:\n            - increments the purchasers ticket count\n            - increments the ticket sale count\n            - refunds any surplus value sent\n            - emits the appropriate event\n    */\n    function buyTickets(uint eventId, uint tickets) public payable {\n        uint price = PRICE_TICKET * tickets;\n        require(events[eventId].isOpen, \"Event sales not open\");\n        require(price <= msg.value, \"Not enough funds\");\n        require(tickets + events[eventId].sales <= events[eventId].totalTickets, \"Tickets not available\");\n        events[eventId].buyers[msg.sender] += tickets; \n        events[eventId].sales += tickets;\n        uint surplus = msg.value - price;\n        if (surplus > 0) {\n            msg.sender.transfer(surplus);\n        }\n        emit LogBuyTickets(msg.sender, eventId, tickets);\n    }\n    /*\n        Define a function called getRefund().\n        This function allows users to request a refund for a specific event.\n        This function takes one parameter, the event ID.\n        TODO:\n            - check that a user has purchased tickets for the event\n            - remove refunded tickets from the sold count\n            - send appropriate value to the refund requester\n            - emit the appropriate event\n    */\n    function getRefund(uint eventId) public {\n        uint tickets = events[eventId].buyers[msg.sender];\n        require(tickets > 0, \"Not a buyer\");\n        events[eventId].buyers[msg.sender] = 0;\n        events[eventId].sales -= tickets;\n        msg.sender.transfer(tickets * PRICE_TICKET);\n        emit LogGetRefund(msg.sender, eventId, tickets);\n    }\n\n    /*\n        Define a function called getBuyerNumberTickets()\n        This function takes one parameter, an event ID\n        This function returns a uint, the number of tickets that the msg.sender has purchased.\n    */\n    function getBuyerNumberTickets(uint eventId) public view returns (uint) {\n        return events[eventId].buyers[msg.sender];\n    }\n    /*\n        Define a function called endSale()\n        This function takes one parameter, the event ID\n        Only the contract owner can call this function\n        TODO:\n            - close event sales\n            - transfer the balance from those event sales to the contract owner\n            - emit the appropriate event\n    */\n        function endSale(uint eventId) public onlyOwner {\n        events[eventId].isOpen = false;\n        uint amount = events[eventId].sales * PRICE_TICKET;\n        msg.sender.transfer(amount);\n        emit LogEndSale(msg.sender, amount, eventId);\n    }\n}\n",
  "sourcePath": "/home/odisi/dev/consensys/event-tickets-exercise-fodisi/contracts/EventTicketsV2.sol",
  "compiler": {
    "name": "solc",
    "version": "0.5.8+commit.23d335f2.Emscripten.clang"
  },
  "schemaVersion": "3.0.11",
  "updatedAt": "2019-08-01T10:25:11.313Z",
  "devdoc": {
    "methods": {}
  },
  "userdoc": {
    "methods": {}
  }
}